{
  "_format": "hh-sol-artifact-1",
  "contractName": "MyEpicNFT",
  "sourceName": "contracts/MyEpicNFT.sol",
  "abi": [
    {
      "inputs": [],
      "stateMutability": "nonpayable",
      "type": "constructor"
    },
    {
      "anonymous": false,
      "inputs": [
        {
          "indexed": true,
          "internalType": "address",
          "name": "owner",
          "type": "address"
        },
        {
          "indexed": true,
          "internalType": "address",
          "name": "approved",
          "type": "address"
        },
        {
          "indexed": true,
          "internalType": "uint256",
          "name": "tokenId",
          "type": "uint256"
        }
      ],
      "name": "Approval",
      "type": "event"
    },
    {
      "anonymous": false,
      "inputs": [
        {
          "indexed": true,
          "internalType": "address",
          "name": "owner",
          "type": "address"
        },
        {
          "indexed": true,
          "internalType": "address",
          "name": "operator",
          "type": "address"
        },
        {
          "indexed": false,
          "internalType": "bool",
          "name": "approved",
          "type": "bool"
        }
      ],
      "name": "ApprovalForAll",
      "type": "event"
    },
    {
      "anonymous": false,
      "inputs": [
        {
          "indexed": false,
          "internalType": "address",
          "name": "sender",
          "type": "address"
        },
        {
          "indexed": false,
          "internalType": "uint256",
          "name": "tokenId",
          "type": "uint256"
        }
      ],
      "name": "NewEpicNFTMinted",
      "type": "event"
    },
    {
      "anonymous": false,
      "inputs": [
        {
          "indexed": true,
          "internalType": "address",
          "name": "from",
          "type": "address"
        },
        {
          "indexed": true,
          "internalType": "address",
          "name": "to",
          "type": "address"
        },
        {
          "indexed": true,
          "internalType": "uint256",
          "name": "tokenId",
          "type": "uint256"
        }
      ],
      "name": "Transfer",
      "type": "event"
    },
    {
      "inputs": [
        {
          "internalType": "address",
          "name": "to",
          "type": "address"
        },
        {
          "internalType": "uint256",
          "name": "tokenId",
          "type": "uint256"
        }
      ],
      "name": "approve",
      "outputs": [],
      "stateMutability": "nonpayable",
      "type": "function"
    },
    {
      "inputs": [
        {
          "internalType": "address",
          "name": "owner",
          "type": "address"
        }
      ],
      "name": "balanceOf",
      "outputs": [
        {
          "internalType": "uint256",
          "name": "",
          "type": "uint256"
        }
      ],
      "stateMutability": "view",
      "type": "function"
    },
    {
      "inputs": [
        {
          "internalType": "uint256",
          "name": "tokenId",
          "type": "uint256"
        }
      ],
      "name": "getApproved",
      "outputs": [
        {
          "internalType": "address",
          "name": "",
          "type": "address"
        }
      ],
      "stateMutability": "view",
      "type": "function"
    },
    {
      "inputs": [
        {
          "internalType": "address",
          "name": "owner",
          "type": "address"
        },
        {
          "internalType": "address",
          "name": "operator",
          "type": "address"
        }
      ],
      "name": "isApprovedForAll",
      "outputs": [
        {
          "internalType": "bool",
          "name": "",
          "type": "bool"
        }
      ],
      "stateMutability": "view",
      "type": "function"
    },
    {
      "inputs": [],
      "name": "makeAnEpicNFT",
      "outputs": [],
      "stateMutability": "nonpayable",
      "type": "function"
    },
    {
      "inputs": [],
      "name": "makeAnEpicNFT0",
      "outputs": [],
      "stateMutability": "nonpayable",
      "type": "function"
    },
    {
      "inputs": [],
      "name": "makeAnEpicNFT1",
      "outputs": [],
      "stateMutability": "nonpayable",
      "type": "function"
    },
    {
      "inputs": [],
      "name": "makeAnEpicNFT2",
      "outputs": [],
      "stateMutability": "nonpayable",
      "type": "function"
    },
    {
      "inputs": [],
      "name": "makeAnEpicNFT3",
      "outputs": [],
      "stateMutability": "nonpayable",
      "type": "function"
    },
    {
      "inputs": [],
      "name": "name",
      "outputs": [
        {
          "internalType": "string",
          "name": "",
          "type": "string"
        }
      ],
      "stateMutability": "view",
      "type": "function"
    },
    {
      "inputs": [
        {
          "internalType": "uint256",
          "name": "tokenId",
          "type": "uint256"
        }
      ],
      "name": "ownerOf",
      "outputs": [
        {
          "internalType": "address",
          "name": "",
          "type": "address"
        }
      ],
      "stateMutability": "view",
      "type": "function"
    },
    {
      "inputs": [
        {
          "internalType": "address",
          "name": "from",
          "type": "address"
        },
        {
          "internalType": "address",
          "name": "to",
          "type": "address"
        },
        {
          "internalType": "uint256",
          "name": "tokenId",
          "type": "uint256"
        }
      ],
      "name": "safeTransferFrom",
      "outputs": [],
      "stateMutability": "nonpayable",
      "type": "function"
    },
    {
      "inputs": [
        {
          "internalType": "address",
          "name": "from",
          "type": "address"
        },
        {
          "internalType": "address",
          "name": "to",
          "type": "address"
        },
        {
          "internalType": "uint256",
          "name": "tokenId",
          "type": "uint256"
        },
        {
          "internalType": "bytes",
          "name": "_data",
          "type": "bytes"
        }
      ],
      "name": "safeTransferFrom",
      "outputs": [],
      "stateMutability": "nonpayable",
      "type": "function"
    },
    {
      "inputs": [
        {
          "internalType": "address",
          "name": "operator",
          "type": "address"
        },
        {
          "internalType": "bool",
          "name": "approved",
          "type": "bool"
        }
      ],
      "name": "setApprovalForAll",
      "outputs": [],
      "stateMutability": "nonpayable",
      "type": "function"
    },
    {
      "inputs": [
        {
          "internalType": "bytes4",
          "name": "interfaceId",
          "type": "bytes4"
        }
      ],
      "name": "supportsInterface",
      "outputs": [
        {
          "internalType": "bool",
          "name": "",
          "type": "bool"
        }
      ],
      "stateMutability": "view",
      "type": "function"
    },
    {
      "inputs": [],
      "name": "symbol",
      "outputs": [
        {
          "internalType": "string",
          "name": "",
          "type": "string"
        }
      ],
      "stateMutability": "view",
      "type": "function"
    },
    {
      "inputs": [
        {
          "internalType": "uint256",
          "name": "tokenId",
          "type": "uint256"
        }
      ],
      "name": "tokenURI",
      "outputs": [
        {
          "internalType": "string",
          "name": "",
          "type": "string"
        }
      ],
      "stateMutability": "view",
      "type": "function"
    },
    {
      "inputs": [
        {
          "internalType": "address",
          "name": "from",
          "type": "address"
        },
        {
          "internalType": "address",
          "name": "to",
          "type": "address"
        },
        {
          "internalType": "uint256",
          "name": "tokenId",
          "type": "uint256"
        }
      ],
      "name": "transferFrom",
      "outputs": [],
      "stateMutability": "nonpayable",
      "type": "function"
    }
  ],
  "bytecode": "0x60806040526040518060800160405280604051806101e001604052806101a88152602001620050066101a89139815260200160405180610180016040528061014481526020016200521661014491398152602001604051806101800160405280610142815260200162004ec461014291398152602001604051806101800160405280610146815260200162004cc361014691398152506008906004620000a7929190620003db565b5060405180608001604052806040518060400160405280600d81526020017f4265796f6e6420576172686f6c00000000000000000000000000000000000000815250815260200160405180606001604052806023815260200162004b2c6023913981526020016040518060400160405280601281526020017f57686174206973206f726967696e616c203f0000000000000000000000000000815250815260200160405180606001604052806021815260200162004ca260219139815250600990600462000177929190620003db565b5060405180608001604052806040518060c001604052806094815260200162004b4f6094913981526020016040518060a0016040528060688152602001620051ae6068913981526020016040518060e0016040528060bf815260200162004be360bf913981526020016040518060e0016040528060bb815260200162004e0960bb9139815250600a9060046200020f929190620003db565b503480156200021d57600080fd5b506040518060400160405280600781526020017f546865204e4654000000000000000000000000000000000000000000000000008152506040518060400160405280600281526020017f544e0000000000000000000000000000000000000000000000000000000000008152508160009080519060200190620002a292919062000442565b508060019080519060200190620002bb92919062000442565b505050620003096040518060400160405280601881526020017f54686973206973206d79204e465420636f6e74726163742e00000000000000008152506200030f60201b62001e2d1760201c565b6200068d565b620003af81604051602401620003269190620005a1565b6040516020818303038152906040527f41304fac000000000000000000000000000000000000000000000000000000007bffffffffffffffffffffffffffffffffffffffffffffffffffffffff19166020820180517bffffffffffffffffffffffffffffffffffffffffffffffffffffffff8381831617835250505050620003b260201b60201c565b50565b60008151905060006a636f6e736f6c652e6c6f679050602083016000808483855afa5050505050565b8280548282559060005260206000209081019282156200042f579160200282015b828111156200042e5782518290805190602001906200041d92919062000442565b5091602001919060010190620003fc565b5b5090506200043e9190620004d3565b5090565b828054620004509062000617565b90600052602060002090601f016020900481019282620004745760008555620004c0565b82601f106200048f57805160ff1916838001178555620004c0565b82800160010185558215620004c0579182015b82811115620004bf578251825591602001919060010190620004a2565b5b509050620004cf9190620004fb565b5090565b5b80821115620004f75760008181620004ed91906200051a565b50600101620004d4565b5090565b5b8082111562000516576000816000905550600101620004fc565b5090565b508054620005289062000617565b6000825580601f106200053c57506200055d565b601f0160209004906000526020600020908101906200055c9190620004fb565b5b50565b60006200056d82620005c5565b620005798185620005d0565b93506200058b818560208601620005e1565b62000596816200067c565b840191505092915050565b60006020820190508181036000830152620005bd818462000560565b905092915050565b600081519050919050565b600082825260208201905092915050565b60005b8381101562000601578082015181840152602081019050620005e4565b8381111562000611576000848401525b50505050565b600060028204905060018216806200063057607f821691505b602082108114156200064757620006466200064d565b5b50919050565b7f4e487b7100000000000000000000000000000000000000000000000000000000600052602260045260246000fd5b6000601f19601f8301169050919050565b61448f806200069d6000396000f3fe608060405234801561001057600080fd5b50600436106101165760003560e01c806344e6db46116100a2578063a22cb46511610071578063a22cb46514610293578063b88d4fde146102af578063c87b56dd146102cb578063de9d132f146102fb578063e985e9c51461030557610116565b806344e6db461461020b5780636352211e1461021557806370a082311461024557806395d89b411461027557610116565b806323b872dd116100e957806323b872dd146101b55780632a179203146101d157806330705978146101db5780633d07d722146101e557806342842e0e146101ef57610116565b806301ffc9a71461011b57806306fdde031461014b578063081812fc14610169578063095ea7b314610199575b600080fd5b61013560048036038101906101309190613226565b610335565b6040516101429190613783565b60405180910390f35b610153610417565b604051610160919061379e565b60405180910390f35b610183600480360381019061017e9190613278565b6104a9565b60405161019091906136f3565b60405180910390f35b6101b360048036038101906101ae91906131ea565b61052e565b005b6101cf60048036038101906101ca91906130e4565b610646565b005b6101d96106a6565b005b6101e3610a08565b005b6101ed610d6a565b005b610209600480360381019061020491906130e4565b6110cc565b005b6102136110ec565b005b61022f600480360381019061022a9190613278565b61144e565b60405161023c91906136f3565b60405180910390f35b61025f600480360381019061025a919061307f565b611500565b60405161026c91906139fe565b60405180910390f35b61027d6115b8565b60405161028a919061379e565b60405180910390f35b6102ad60048036038101906102a891906131ae565b61164a565b005b6102c960048036038101906102c49190613133565b611660565b005b6102e560048036038101906102e09190613278565b6116c2565b6040516102f2919061379e565b60405180910390f35b610303611814565b005b61031f600480360381019061031a91906130a8565b611d99565b60405161032c9190613783565b60405180910390f35b60007f80ac58cd000000000000000000000000000000000000000000000000000000007bffffffffffffffffffffffffffffffffffffffffffffffffffffffff1916827bffffffffffffffffffffffffffffffffffffffffffffffffffffffff1916148061040057507f5b5e139f000000000000000000000000000000000000000000000000000000007bffffffffffffffffffffffffffffffffffffffffffffffffffffffff1916827bffffffffffffffffffffffffffffffffffffffffffffffffffffffff1916145b80610410575061040f82611ec6565b5b9050919050565b60606000805461042690613c7d565b80601f016020809104026020016040519081016040528092919081815260200182805461045290613c7d565b801561049f5780601f106104745761010080835404028352916020019161049f565b820191906000526020600020905b81548152906001019060200180831161048257829003601f168201915b5050505050905090565b60006104b482611f30565b6104f3576040517f08c379a00000000000000000000000000000000000000000000000000000000081526004016104ea9061397e565b60405180910390fd5b6004600083815260200190815260200160002060009054906101000a900473ffffffffffffffffffffffffffffffffffffffff169050919050565b60006105398261144e565b90508073ffffffffffffffffffffffffffffffffffffffff168373ffffffffffffffffffffffffffffffffffffffff1614156105aa576040517f08c379a00000000000000000000000000000000000000000000000000000000081526004016105a1906139be565b60405180910390fd5b8073ffffffffffffffffffffffffffffffffffffffff166105c9611f9c565b73ffffffffffffffffffffffffffffffffffffffff1614806105f857506105f7816105f2611f9c565b611d99565b5b610637576040517f08c379a000000000000000000000000000000000000000000000000000000000815260040161062e906138be565b60405180910390fd5b6106418383611fa4565b505050565b610657610651611f9c565b8261205d565b610696576040517f08c379a000000000000000000000000000000000000000000000000000000000815260040161068d906139de565b60405180910390fd5b6106a183838361213b565b505050565b60006106b260076123a2565b9050600060086001815481106106f1577f4e487b7100000000000000000000000000000000000000000000000000000000600052603260045260246000fd5b90600052602060002001805461070690613c7d565b80601f016020809104026020016040519081016040528092919081815260200182805461073290613c7d565b801561077f5780601f106107545761010080835404028352916020019161077f565b820191906000526020600020905b81548152906001019060200180831161076257829003601f168201915b50505050509050600060096001815481106107c3577f4e487b7100000000000000000000000000000000000000000000000000000000600052603260045260246000fd5b9060005260206000200180546107d890613c7d565b80601f016020809104026020016040519081016040528092919081815260200182805461080490613c7d565b80156108515780601f1061082657610100808354040283529160200191610851565b820191906000526020600020905b81548152906001019060200180831161083457829003601f168201915b505050505090506000600a600181548110610895577f4e487b7100000000000000000000000000000000000000000000000000000000600052603260045260246000fd5b9060005260206000200180546108aa90613c7d565b80601f01602080910402602001604051908101604052809291908181526020018280546108d690613c7d565b80156109235780601f106108f857610100808354040283529160200191610923565b820191906000526020600020905b81548152906001019060200180831161090657829003601f168201915b505050505090506000610960838361093a876123b0565b60405160200161094c93929190613674565b6040516020818303038152906040526123b0565b905060008160405160200161097591906136d1565b6040516020818303038152906040529050610990338761256e565b61099a868261258c565b6109bd6040518060600160405280602581526020016143f5602591398733612600565b6109c7600761269f565b7febb98688741ffa4c7589bf325de30cf7becb63de567842e1ccdb6cb949fdc82c33876040516109f892919061375a565b60405180910390a1505050505050565b6000610a1460076123a2565b905060006008600381548110610a53577f4e487b7100000000000000000000000000000000000000000000000000000000600052603260045260246000fd5b906000526020600020018054610a6890613c7d565b80601f0160208091040260200160405190810160405280929190818152602001828054610a9490613c7d565b8015610ae15780601f10610ab657610100808354040283529160200191610ae1565b820191906000526020600020905b815481529060010190602001808311610ac457829003601f168201915b5050505050905060006009600381548110610b25577f4e487b7100000000000000000000000000000000000000000000000000000000600052603260045260246000fd5b906000526020600020018054610b3a90613c7d565b80601f0160208091040260200160405190810160405280929190818152602001828054610b6690613c7d565b8015610bb35780601f10610b8857610100808354040283529160200191610bb3565b820191906000526020600020905b815481529060010190602001808311610b9657829003601f168201915b505050505090506000600a600381548110610bf7577f4e487b7100000000000000000000000000000000000000000000000000000000600052603260045260246000fd5b906000526020600020018054610c0c90613c7d565b80601f0160208091040260200160405190810160405280929190818152602001828054610c3890613c7d565b8015610c855780601f10610c5a57610100808354040283529160200191610c85565b820191906000526020600020905b815481529060010190602001808311610c6857829003601f168201915b505050505090506000610cc28383610c9c876123b0565b604051602001610cae93929190613674565b6040516020818303038152906040526123b0565b9050600081604051602001610cd791906136d1565b6040516020818303038152906040529050610cf2338761256e565b610cfc868261258c565b610d1f6040518060600160405280602581526020016143f5602591398733612600565b610d29600761269f565b7febb98688741ffa4c7589bf325de30cf7becb63de567842e1ccdb6cb949fdc82c3387604051610d5a92919061375a565b60405180910390a1505050505050565b6000610d7660076123a2565b905060006008600081548110610db5577f4e487b7100000000000000000000000000000000000000000000000000000000600052603260045260246000fd5b906000526020600020018054610dca90613c7d565b80601f0160208091040260200160405190810160405280929190818152602001828054610df690613c7d565b8015610e435780601f10610e1857610100808354040283529160200191610e43565b820191906000526020600020905b815481529060010190602001808311610e2657829003601f168201915b5050505050905060006009600081548110610e87577f4e487b7100000000000000000000000000000000000000000000000000000000600052603260045260246000fd5b906000526020600020018054610e9c90613c7d565b80601f0160208091040260200160405190810160405280929190818152602001828054610ec890613c7d565b8015610f155780601f10610eea57610100808354040283529160200191610f15565b820191906000526020600020905b815481529060010190602001808311610ef857829003601f168201915b505050505090506000600a600081548110610f59577f4e487b7100000000000000000000000000000000000000000000000000000000600052603260045260246000fd5b906000526020600020018054610f6e90613c7d565b80601f0160208091040260200160405190810160405280929190818152602001828054610f9a90613c7d565b8015610fe75780601f10610fbc57610100808354040283529160200191610fe7565b820191906000526020600020905b815481529060010190602001808311610fca57829003601f168201915b5050505050905060006110248383610ffe876123b0565b60405160200161101093929190613674565b6040516020818303038152906040526123b0565b905060008160405160200161103991906136d1565b6040516020818303038152906040529050611054338761256e565b61105e868261258c565b6110816040518060600160405280602581526020016143f5602591398733612600565b61108b600761269f565b7febb98688741ffa4c7589bf325de30cf7becb63de567842e1ccdb6cb949fdc82c33876040516110bc92919061375a565b60405180910390a1505050505050565b6110e783838360405180602001604052806000815250611660565b505050565b60006110f860076123a2565b905060006008600281548110611137577f4e487b7100000000000000000000000000000000000000000000000000000000600052603260045260246000fd5b90600052602060002001805461114c90613c7d565b80601f016020809104026020016040519081016040528092919081815260200182805461117890613c7d565b80156111c55780601f1061119a576101008083540402835291602001916111c5565b820191906000526020600020905b8154815290600101906020018083116111a857829003601f168201915b5050505050905060006009600281548110611209577f4e487b7100000000000000000000000000000000000000000000000000000000600052603260045260246000fd5b90600052602060002001805461121e90613c7d565b80601f016020809104026020016040519081016040528092919081815260200182805461124a90613c7d565b80156112975780601f1061126c57610100808354040283529160200191611297565b820191906000526020600020905b81548152906001019060200180831161127a57829003601f168201915b505050505090506000600a6002815481106112db577f4e487b7100000000000000000000000000000000000000000000000000000000600052603260045260246000fd5b9060005260206000200180546112f090613c7d565b80601f016020809104026020016040519081016040528092919081815260200182805461131c90613c7d565b80156113695780601f1061133e57610100808354040283529160200191611369565b820191906000526020600020905b81548152906001019060200180831161134c57829003601f168201915b5050505050905060006113a68383611380876123b0565b60405160200161139293929190613674565b6040516020818303038152906040526123b0565b90506000816040516020016113bb91906136d1565b60405160208183030381529060405290506113d6338761256e565b6113e0868261258c565b6114036040518060600160405280602581526020016143f5602591398733612600565b61140d600761269f565b7febb98688741ffa4c7589bf325de30cf7becb63de567842e1ccdb6cb949fdc82c338760405161143e92919061375a565b60405180910390a1505050505050565b6000806002600084815260200190815260200160002060009054906101000a900473ffffffffffffffffffffffffffffffffffffffff169050600073ffffffffffffffffffffffffffffffffffffffff168173ffffffffffffffffffffffffffffffffffffffff1614156114f7576040517f08c379a00000000000000000000000000000000000000000000000000000000081526004016114ee906138fe565b60405180910390fd5b80915050919050565b60008073ffffffffffffffffffffffffffffffffffffffff168273ffffffffffffffffffffffffffffffffffffffff161415611571576040517f08c379a0000000000000000000000000000000000000000000000000000000008152600401611568906138de565b60405180910390fd5b600360008373ffffffffffffffffffffffffffffffffffffffff1673ffffffffffffffffffffffffffffffffffffffff168152602001908152602001600020549050919050565b6060600180546115c790613c7d565b80601f01602080910402602001604051908101604052809291908181526020018280546115f390613c7d565b80156116405780601f1061161557610100808354040283529160200191611640565b820191906000526020600020905b81548152906001019060200180831161162357829003601f168201915b5050505050905090565b61165c611655611f9c565b83836126b5565b5050565b61167161166b611f9c565b8361205d565b6116b0576040517f08c379a00000000000000000000000000000000000000000000000000000000081526004016116a7906139de565b60405180910390fd5b6116bc84848484612822565b50505050565b60606116cd82611f30565b61170c576040517f08c379a00000000000000000000000000000000000000000000000000000000081526004016117039061395e565b60405180910390fd5b600060066000848152602001908152602001600020805461172c90613c7d565b80601f016020809104026020016040519081016040528092919081815260200182805461175890613c7d565b80156117a55780601f1061177a576101008083540402835291602001916117a5565b820191906000526020600020905b81548152906001019060200180831161178857829003601f168201915b5050505050905060006117b661287e565b90506000815114156117cc57819250505061180f565b6000825111156118015780826040516020016117e9929190613650565b6040516020818303038152906040529250505061180f565b61180a84612895565b925050505b919050565b600061182060076123a2565b905060006004826118319190613d29565b905060006008828154811061186f577f4e487b7100000000000000000000000000000000000000000000000000000000600052603260045260246000fd5b90600052602060002001805461188490613c7d565b80601f01602080910402602001604051908101604052809291908181526020018280546118b090613c7d565b80156118fd5780601f106118d2576101008083540402835291602001916118fd565b820191906000526020600020905b8154815290600101906020018083116118e057829003601f168201915b50505050509050600060098381548110611940577f4e487b7100000000000000000000000000000000000000000000000000000000600052603260045260246000fd5b90600052602060002001805461195590613c7d565b80601f016020809104026020016040519081016040528092919081815260200182805461198190613c7d565b80156119ce5780601f106119a3576101008083540402835291602001916119ce565b820191906000526020600020905b8154815290600101906020018083116119b157829003601f168201915b505050505090506000600a8481548110611a11577f4e487b7100000000000000000000000000000000000000000000000000000000600052603260045260246000fd5b906000526020600020018054611a2690613c7d565b80601f0160208091040260200160405190810160405280929190818152602001828054611a5290613c7d565b8015611a9f5780601f10611a7457610100808354040283529160200191611a9f565b820191906000526020600020905b815481529060010190602001808311611a8257829003601f168201915b50505050509050611ae46040518060400160405280601581526020017f0a2d2d2d2d2d205356472064617461202d2d2d2d2d0000000000000000000000815250611e2d565b611aed83611e2d565b611b2b6040518060400160405280601581526020017f2d2d2d2d2d2d2d2d2d2d2d2d2d2d2d2d2d2d2d2d0a0000000000000000000000815250611e2d565b611b696040518060400160405280601181526020017f0a2d2d2d2d2d204e616d65202d2d2d2d2d000000000000000000000000000000815250611e2d565b611b7282611e2d565b611bb06040518060400160405280601581526020017f2d2d2d2d2d2d2d2d2d2d2d2d2d2d2d2d2d2d2d2d0a0000000000000000000000815250611e2d565b611bee6040518060400160405280601881526020017f0a2d2d2d2d2d204465736372697074696f6e202d2d2d2d2d0000000000000000815250611e2d565b611bf781611e2d565b611c356040518060400160405280601581526020017f2d2d2d2d2d2d2d2d2d2d2d2d2d2d2d2d2d2d2d2d0a0000000000000000000000815250611e2d565b6000611c6b8383611c45876123b0565b604051602001611c5793929190613674565b6040516020818303038152906040526123b0565b9050600081604051602001611c8091906136d1565b6040516020818303038152906040529050611ccf6040518060400160405280601581526020017f0a2d2d2d2d2d20546f6b656e20555249202d2d2d2d0000000000000000000000815250611e2d565b611cd881611e2d565b611d166040518060400160405280601581526020017f2d2d2d2d2d2d2d2d2d2d2d2d2d2d2d2d2d2d2d2d0a0000000000000000000000815250611e2d565b611d20338861256e565b611d2a878261258c565b611d4d6040518060600160405280602581526020016143f5602591398833612600565b611d57600761269f565b7febb98688741ffa4c7589bf325de30cf7becb63de567842e1ccdb6cb949fdc82c3388604051611d8892919061375a565b60405180910390a150505050505050565b6000600560008473ffffffffffffffffffffffffffffffffffffffff1673ffffffffffffffffffffffffffffffffffffffff16815260200190815260200160002060008373ffffffffffffffffffffffffffffffffffffffff1673ffffffffffffffffffffffffffffffffffffffff16815260200190815260200160002060009054906101000a900460ff16905092915050565b611ec381604051602401611e41919061379e565b6040516020818303038152906040527f41304fac000000000000000000000000000000000000000000000000000000007bffffffffffffffffffffffffffffffffffffffffffffffffffffffff19166020820180517bffffffffffffffffffffffffffffffffffffffffffffffffffffffff838183161783525050505061293c565b50565b60007f01ffc9a7000000000000000000000000000000000000000000000000000000007bffffffffffffffffffffffffffffffffffffffffffffffffffffffff1916827bffffffffffffffffffffffffffffffffffffffffffffffffffffffff1916149050919050565b60008073ffffffffffffffffffffffffffffffffffffffff166002600084815260200190815260200160002060009054906101000a900473ffffffffffffffffffffffffffffffffffffffff1673ffffffffffffffffffffffffffffffffffffffff1614159050919050565b600033905090565b816004600083815260200190815260200160002060006101000a81548173ffffffffffffffffffffffffffffffffffffffff021916908373ffffffffffffffffffffffffffffffffffffffff160217905550808273ffffffffffffffffffffffffffffffffffffffff166120178361144e565b73ffffffffffffffffffffffffffffffffffffffff167f8c5be1e5ebec7d5bd14f71427d1e84f3dd0314c0f7b2291e5b200ac8c7c3b92560405160405180910390a45050565b600061206882611f30565b6120a7576040517f08c379a000000000000000000000000000000000000000000000000000000000815260040161209e9061389e565b60405180910390fd5b60006120b28361144e565b90508073ffffffffffffffffffffffffffffffffffffffff168473ffffffffffffffffffffffffffffffffffffffff16148061212157508373ffffffffffffffffffffffffffffffffffffffff16612109846104a9565b73ffffffffffffffffffffffffffffffffffffffff16145b8061213257506121318185611d99565b5b91505092915050565b8273ffffffffffffffffffffffffffffffffffffffff1661215b8261144e565b73ffffffffffffffffffffffffffffffffffffffff16146121b1576040517f08c379a00000000000000000000000000000000000000000000000000000000081526004016121a89061381e565b60405180910390fd5b600073ffffffffffffffffffffffffffffffffffffffff168273ffffffffffffffffffffffffffffffffffffffff161415612221576040517f08c379a00000000000000000000000000000000000000000000000000000000081526004016122189061385e565b60405180910390fd5b61222c838383612965565b612237600082611fa4565b6001600360008573ffffffffffffffffffffffffffffffffffffffff1673ffffffffffffffffffffffffffffffffffffffff16815260200190815260200160002060008282546122879190613b93565b925050819055506001600360008473ffffffffffffffffffffffffffffffffffffffff1673ffffffffffffffffffffffffffffffffffffffff16815260200190815260200160002060008282546122de9190613ab2565b92505081905550816002600083815260200190815260200160002060006101000a81548173ffffffffffffffffffffffffffffffffffffffff021916908373ffffffffffffffffffffffffffffffffffffffff160217905550808273ffffffffffffffffffffffffffffffffffffffff168473ffffffffffffffffffffffffffffffffffffffff167fddf252ad1be2c89b69c2b068fc378daa952ba7f163c4a11628f55a4df523b3ef60405160405180910390a461239d83838361296a565b505050565b600081600001549050919050565b606060008251905060008114156123d95760405180602001604052806000815250915050612569565b600060036002836123ea9190613ab2565b6123f49190613b08565b60046124009190613b39565b905060006020826124119190613ab2565b67ffffffffffffffff811115612450577f4e487b7100000000000000000000000000000000000000000000000000000000600052604160045260246000fd5b6040519080825280601f01601f1916602001820160405280156124825781602001600182028036833780820191505090505b509050600060405180606001604052806040815260200161441a604091399050600181016020830160005b868110156125265760038101905062ffffff818a015116603f8160121c168401518060081b905060ff603f83600c1c1686015116810190508060081b905060ff603f8360061c1686015116810190508060081b905060ff603f831686015116810190508060e01b905080845260048401935050506124ad565b50600386066001811461254057600281146125505761255b565b613d3d60f01b600283035261255b565b603d60f81b60018303525b508484525050819450505050505b919050565b61258882826040518060200160405280600081525061296f565b5050565b61259582611f30565b6125d4576040517f08c379a00000000000000000000000000000000000000000000000000000000081526004016125cb9061391e565b60405180910390fd5b806006600084815260200190815260200160002090805190602001906125fb929190612f0b565b505050565b61269a838383604051602401612618939291906137c0565b6040516020818303038152906040527fe3849f79000000000000000000000000000000000000000000000000000000007bffffffffffffffffffffffffffffffffffffffffffffffffffffffff19166020820180517bffffffffffffffffffffffffffffffffffffffffffffffffffffffff838183161783525050505061293c565b505050565b6001816000016000828254019250508190555050565b8173ffffffffffffffffffffffffffffffffffffffff168373ffffffffffffffffffffffffffffffffffffffff161415612724576040517f08c379a000000000000000000000000000000000000000000000000000000000815260040161271b9061387e565b60405180910390fd5b80600560008573ffffffffffffffffffffffffffffffffffffffff1673ffffffffffffffffffffffffffffffffffffffff16815260200190815260200160002060008473ffffffffffffffffffffffffffffffffffffffff1673ffffffffffffffffffffffffffffffffffffffff16815260200190815260200160002060006101000a81548160ff0219169083151502179055508173ffffffffffffffffffffffffffffffffffffffff168373ffffffffffffffffffffffffffffffffffffffff167f17307eab39ab6107e8899845ad3d59bd9653f200f220920489ca2b5937696c31836040516128159190613783565b60405180910390a3505050565b61282d84848461213b565b612839848484846129ca565b612878576040517f08c379a000000000000000000000000000000000000000000000000000000000815260040161286f906137fe565b60405180910390fd5b50505050565b606060405180602001604052806000815250905090565b60606128a082611f30565b6128df576040517f08c379a00000000000000000000000000000000000000000000000000000000081526004016128d69061399e565b60405180910390fd5b60006128e961287e565b905060008151116129095760405180602001604052806000815250612934565b8061291384612b61565b604051602001612924929190613650565b6040516020818303038152906040525b915050919050565b60008151905060006a636f6e736f6c652e6c6f679050602083016000808483855afa5050505050565b505050565b505050565b6129798383612d0e565b61298660008484846129ca565b6129c5576040517f08c379a00000000000000000000000000000000000000000000000000000000081526004016129bc906137fe565b60405180910390fd5b505050565b60006129eb8473ffffffffffffffffffffffffffffffffffffffff16612ee8565b15612b54578373ffffffffffffffffffffffffffffffffffffffff1663150b7a02612a14611f9c565b8786866040518563ffffffff1660e01b8152600401612a36949392919061370e565b602060405180830381600087803b158015612a5057600080fd5b505af1925050508015612a8157506040513d601f19601f82011682018060405250810190612a7e919061324f565b60015b612b04573d8060008114612ab1576040519150601f19603f3d011682016040523d82523d6000602084013e612ab6565b606091505b50600081511415612afc576040517f08c379a0000000000000000000000000000000000000000000000000000000008152600401612af3906137fe565b60405180910390fd5b805181602001fd5b63150b7a0260e01b7bffffffffffffffffffffffffffffffffffffffffffffffffffffffff1916817bffffffffffffffffffffffffffffffffffffffffffffffffffffffff191614915050612b59565b600190505b949350505050565b60606000821415612ba9576040518060400160405280600181526020017f30000000000000000000000000000000000000000000000000000000000000008152509050612d09565b600082905060005b60008214612bdb578080612bc490613ce0565b915050600a82612bd49190613b08565b9150612bb1565b60008167ffffffffffffffff811115612c1d577f4e487b7100000000000000000000000000000000000000000000000000000000600052604160045260246000fd5b6040519080825280601f01601f191660200182016040528015612c4f5781602001600182028036833780820191505090505b5090505b60008514612d0257600182612c689190613b93565b9150600a85612c779190613d29565b6030612c839190613ab2565b60f81b818381518110612cbf577f4e487b7100000000000000000000000000000000000000000000000000000000600052603260045260246000fd5b60200101907effffffffffffffffffffffffffffffffffffffffffffffffffffffffffffff1916908160001a905350600a85612cfb9190613b08565b9450612c53565b8093505050505b919050565b600073ffffffffffffffffffffffffffffffffffffffff168273ffffffffffffffffffffffffffffffffffffffff161415612d7e576040517f08c379a0000000000000000000000000000000000000000000000000000000008152600401612d759061393e565b60405180910390fd5b612d8781611f30565b15612dc7576040517f08c379a0000000000000000000000000000000000000000000000000000000008152600401612dbe9061383e565b60405180910390fd5b612dd360008383612965565b6001600360008473ffffffffffffffffffffffffffffffffffffffff1673ffffffffffffffffffffffffffffffffffffffff1681526020019081526020016000206000828254612e239190613ab2565b92505081905550816002600083815260200190815260200160002060006101000a81548173ffffffffffffffffffffffffffffffffffffffff021916908373ffffffffffffffffffffffffffffffffffffffff160217905550808273ffffffffffffffffffffffffffffffffffffffff16600073ffffffffffffffffffffffffffffffffffffffff167fddf252ad1be2c89b69c2b068fc378daa952ba7f163c4a11628f55a4df523b3ef60405160405180910390a4612ee46000838361296a565b5050565b6000808273ffffffffffffffffffffffffffffffffffffffff163b119050919050565b828054612f1790613c7d565b90600052602060002090601f016020900481019282612f395760008555612f80565b82601f10612f5257805160ff1916838001178555612f80565b82800160010185558215612f80579182015b82811115612f7f578251825591602001919060010190612f64565b5b509050612f8d9190612f91565b5090565b5b80821115612faa576000816000905550600101612f92565b5090565b6000612fc1612fbc84613a3e565b613a19565b905082815260208101848484011115612fd957600080fd5b612fe4848285613c3b565b509392505050565b600081359050612ffb81614398565b92915050565b600081359050613010816143af565b92915050565b600081359050613025816143c6565b92915050565b60008151905061303a816143c6565b92915050565b600082601f83011261305157600080fd5b8135613061848260208601612fae565b91505092915050565b600081359050613079816143dd565b92915050565b60006020828403121561309157600080fd5b600061309f84828501612fec565b91505092915050565b600080604083850312156130bb57600080fd5b60006130c985828601612fec565b92505060206130da85828601612fec565b9150509250929050565b6000806000606084860312156130f957600080fd5b600061310786828701612fec565b935050602061311886828701612fec565b92505060406131298682870161306a565b9150509250925092565b6000806000806080858703121561314957600080fd5b600061315787828801612fec565b945050602061316887828801612fec565b93505060406131798782880161306a565b925050606085013567ffffffffffffffff81111561319657600080fd5b6131a287828801613040565b91505092959194509250565b600080604083850312156131c157600080fd5b60006131cf85828601612fec565b92505060206131e085828601613001565b9150509250929050565b600080604083850312156131fd57600080fd5b600061320b85828601612fec565b925050602061321c8582860161306a565b9150509250929050565b60006020828403121561323857600080fd5b600061324684828501613016565b91505092915050565b60006020828403121561326157600080fd5b600061326f8482850161302b565b91505092915050565b60006020828403121561328a57600080fd5b60006132988482850161306a565b91505092915050565b6132aa81613bc7565b82525050565b6132b981613bd9565b82525050565b60006132ca82613a6f565b6132d48185613a85565b93506132e4818560208601613c4a565b6132ed81613e16565b840191505092915050565b600061330382613a7a565b61330d8185613a96565b935061331d818560208601613c4a565b61332681613e16565b840191505092915050565b600061333c82613a7a565b6133468185613aa7565b9350613356818560208601613c4a565b80840191505092915050565b600061336f601383613aa7565b915061337a82613e27565b601382019050919050565b6000613392603283613a96565b915061339d82613e50565b604082019050919050565b60006133b5602583613a96565b91506133c082613e9f565b604082019050919050565b60006133d8601c83613a96565b91506133e382613eee565b602082019050919050565b60006133fb602483613a96565b915061340682613f17565b604082019050919050565b600061341e601983613a96565b915061342982613f66565b602082019050919050565b6000613441602c83613a96565b915061344c82613f8f565b604082019050919050565b6000613464603883613a96565b915061346f82613fde565b604082019050919050565b6000613487602a83613a96565b91506134928261402d565b604082019050919050565b60006134aa602983613a96565b91506134b58261407c565b604082019050919050565b60006134cd602e83613a96565b91506134d8826140cb565b604082019050919050565b60006134f0600283613aa7565b91506134fb8261411a565b600282019050919050565b6000613513602083613a96565b915061351e82614143565b602082019050919050565b6000613536603183613a96565b91506135418261416c565b604082019050919050565b6000613559602c83613a96565b9150613564826141bb565b604082019050919050565b600061357c602f83613a96565b91506135878261420a565b604082019050919050565b600061359f602783613aa7565b91506135aa82614259565b602782019050919050565b60006135c2600a83613aa7565b91506135cd826142a8565b600a82019050919050565b60006135e5602183613a96565b91506135f0826142d1565b604082019050919050565b6000613608601d83613aa7565b915061361382614320565b601d82019050919050565b600061362b603183613a96565b915061363682614349565b604082019050919050565b61364a81613c31565b82525050565b600061365c8285613331565b91506136688284613331565b91508190509392505050565b600061367f826135b5565b915061368b8286613331565b915061369682613362565b91506136a28285613331565b91506136ad82613592565b91506136b98284613331565b91506136c4826134e3565b9150819050949350505050565b60006136dc826135fb565b91506136e88284613331565b915081905092915050565b600060208201905061370860008301846132a1565b92915050565b600060808201905061372360008301876132a1565b61373060208301866132a1565b61373d6040830185613641565b818103606083015261374f81846132bf565b905095945050505050565b600060408201905061376f60008301856132a1565b61377c6020830184613641565b9392505050565b600060208201905061379860008301846132b0565b92915050565b600060208201905081810360008301526137b881846132f8565b905092915050565b600060608201905081810360008301526137da81866132f8565b90506137e96020830185613641565b6137f660408301846132a1565b949350505050565b6000602082019050818103600083015261381781613385565b9050919050565b60006020820190508181036000830152613837816133a8565b9050919050565b60006020820190508181036000830152613857816133cb565b9050919050565b60006020820190508181036000830152613877816133ee565b9050919050565b6000602082019050818103600083015261389781613411565b9050919050565b600060208201905081810360008301526138b781613434565b9050919050565b600060208201905081810360008301526138d781613457565b9050919050565b600060208201905081810360008301526138f78161347a565b9050919050565b600060208201905081810360008301526139178161349d565b9050919050565b60006020820190508181036000830152613937816134c0565b9050919050565b6000602082019050818103600083015261395781613506565b9050919050565b6000602082019050818103600083015261397781613529565b9050919050565b600060208201905081810360008301526139978161354c565b9050919050565b600060208201905081810360008301526139b78161356f565b9050919050565b600060208201905081810360008301526139d7816135d8565b9050919050565b600060208201905081810360008301526139f78161361e565b9050919050565b6000602082019050613a136000830184613641565b92915050565b6000613a23613a34565b9050613a2f8282613caf565b919050565b6000604051905090565b600067ffffffffffffffff821115613a5957613a58613de7565b5b613a6282613e16565b9050602081019050919050565b600081519050919050565b600081519050919050565b600082825260208201905092915050565b600082825260208201905092915050565b600081905092915050565b6000613abd82613c31565b9150613ac883613c31565b9250827fffffffffffffffffffffffffffffffffffffffffffffffffffffffffffffffff03821115613afd57613afc613d5a565b5b828201905092915050565b6000613b1382613c31565b9150613b1e83613c31565b925082613b2e57613b2d613d89565b5b828204905092915050565b6000613b4482613c31565b9150613b4f83613c31565b9250817fffffffffffffffffffffffffffffffffffffffffffffffffffffffffffffffff0483118215151615613b8857613b87613d5a565b5b828202905092915050565b6000613b9e82613c31565b9150613ba983613c31565b925082821015613bbc57613bbb613d5a565b5b828203905092915050565b6000613bd282613c11565b9050919050565b60008115159050919050565b60007fffffffff0000000000000000000000000000000000000000000000000000000082169050919050565b600073ffffffffffffffffffffffffffffffffffffffff82169050919050565b6000819050919050565b82818337600083830152505050565b60005b83811015613c68578082015181840152602081019050613c4d565b83811115613c77576000848401525b50505050565b60006002820490506001821680613c9557607f821691505b60208210811415613ca957613ca8613db8565b5b50919050565b613cb882613e16565b810181811067ffffffffffffffff82111715613cd757613cd6613de7565b5b80604052505050565b6000613ceb82613c31565b91507fffffffffffffffffffffffffffffffffffffffffffffffffffffffffffffffff821415613d1e57613d1d613d5a565b5b600182019050919050565b6000613d3482613c31565b9150613d3f83613c31565b925082613d4f57613d4e613d89565b5b828206905092915050565b7f4e487b7100000000000000000000000000000000000000000000000000000000600052601160045260246000fd5b7f4e487b7100000000000000000000000000000000000000000000000000000000600052601260045260246000fd5b7f4e487b7100000000000000000000000000000000000000000000000000000000600052602260045260246000fd5b7f4e487b7100000000000000000000000000000000000000000000000000000000600052604160045260246000fd5b6000601f19601f8301169050919050565b7f222c20226465736372697074696f6e223a202200000000000000000000000000600082015250565b7f4552433732313a207472616e7366657220746f206e6f6e20455243373231526560008201527f63656976657220696d706c656d656e7465720000000000000000000000000000602082015250565b7f4552433732313a207472616e736665722066726f6d20696e636f72726563742060008201527f6f776e6572000000000000000000000000000000000000000000000000000000602082015250565b7f4552433732313a20746f6b656e20616c7265616479206d696e74656400000000600082015250565b7f4552433732313a207472616e7366657220746f20746865207a65726f2061646460008201527f7265737300000000000000000000000000000000000000000000000000000000602082015250565b7f4552433732313a20617070726f766520746f2063616c6c657200000000000000600082015250565b7f4552433732313a206f70657261746f7220717565727920666f72206e6f6e657860008201527f697374656e7420746f6b656e0000000000000000000000000000000000000000602082015250565b7f4552433732313a20617070726f76652063616c6c6572206973206e6f74206f7760008201527f6e6572206e6f7220617070726f76656420666f7220616c6c0000000000000000602082015250565b7f4552433732313a2062616c616e636520717565727920666f7220746865207a6560008201527f726f206164647265737300000000000000000000000000000000000000000000602082015250565b7f4552433732313a206f776e657220717565727920666f72206e6f6e657869737460008201527f656e7420746f6b656e0000000000000000000000000000000000000000000000602082015250565b7f45524337323155524953746f726167653a2055524920736574206f66206e6f6e60008201527f6578697374656e7420746f6b656e000000000000000000000000000000000000602082015250565b7f227d000000000000000000000000000000000000000000000000000000000000600082015250565b7f4552433732313a206d696e7420746f20746865207a65726f2061646472657373600082015250565b7f45524337323155524953746f726167653a2055524920717565727920666f722060008201527f6e6f6e6578697374656e7420746f6b656e000000000000000000000000000000602082015250565b7f4552433732313a20617070726f76656420717565727920666f72206e6f6e657860008201527f697374656e7420746f6b656e0000000000000000000000000000000000000000602082015250565b7f4552433732314d657461646174613a2055524920717565727920666f72206e6f60008201527f6e6578697374656e7420746f6b656e0000000000000000000000000000000000602082015250565b7f222c2022696d616765223a2022646174613a696d6167652f7376672b786d6c3b60008201527f6261736536342c00000000000000000000000000000000000000000000000000602082015250565b7f7b226e616d65223a202200000000000000000000000000000000000000000000600082015250565b7f4552433732313a20617070726f76616c20746f2063757272656e74206f776e6560008201527f7200000000000000000000000000000000000000000000000000000000000000602082015250565b7f646174613a6170706c69636174696f6e2f6a736f6e3b6261736536342c000000600082015250565b7f4552433732313a207472616e736665722063616c6c6572206973206e6f74206f60008201527f776e6572206e6f7220617070726f766564000000000000000000000000000000602082015250565b6143a181613bc7565b81146143ac57600080fd5b50565b6143b881613bd9565b81146143c357600080fd5b50565b6143cf81613be5565b81146143da57600080fd5b50565b6143e681613c31565b81146143f157600080fd5b5056fe416e204e465420772f20494420257320686173206265656e206d696e74656420746f2025734142434445464748494a4b4c4d4e4f505152535455565758595a6162636465666768696a6b6c6d6e6f707172737475767778797a303132333435363738392b2fa264697066735822122013fcb1b722aa202fadc2cb8a45cd450c42968e1f173af573a583bd835be8ae8464736f6c634300080400334973207468697320617274776f726b204552432d3230206f72204552432d373231203f416e647920576172686f6c207361696420275468657265206973206e6f7468696e6720626568696e642069742e27204e6f772c2074686572652069732074686520626c6f636b636861696e20626568696e64204e46542e20496620686520776f756c64206c6f6f6b20617420746865204e46542c20776f756c642068652073617920697420697320737570657266696369616c3f546865206d6f7265204e4654732061726520636f706965642c20746865206d6f72652076616c7561626c652074686579206265636f6d652e2054686520757365722773207369676e6174757265206f6e6c792070726f7665732074686520646966666572656e63652066726f6d206f74686572732e20416c6c20696d616765732063616e206265207361696420746f20626520636f706965732e2057686174206973206f726967696e616c3f205768657265206973206f726967696e616c3f446966666572656e74206d656469756d2c20646966666572656e7420776f726b733c73766720786d6c6e733d27687474703a2f2f7777772e77332e6f72672f323030302f73766727207072657365727665417370656374526174696f3d27784d696e594d696e206d656574272076696577426f783d273020302033303020333030273e3c7374796c653e2e62617365207b2066696c6c3a626c61636b203b20666f6e742d66616d696c793a2073657269663b20666f6e742d73697a653a20333070783b207d3c2f7374796c653e3c726563742077696474683d273130302527206865696768743d2731303025272066696c6c3d27776869746527202f3e20203c7465787420783d273530252720793d273530252720636c6173733d27626173652720646f6d696e616e742d626173656c696e653d276d6964646c652720746578742d616e63686f723d276d6964646c65273e5343414c41424c453c2f746578743e3c2f7376673e4469676974616c20696d6167657320617265207363616c61626c652e2049742063616e206265207363616c656420667265656c7920616e64206c6f6f6b20646966666572656e7420646570656e64696e67206f6e20746865206465766963652e205468652061727420796f7520736565206973206d6174657269616c2e2049742063616e6e6f74206265207363616c65642e204e4654277320696d616765732061726520756e697175652c20627574206e6f7420756e697175652e3c73766720786d6c6e733d27687474703a2f2f7777772e77332e6f72672f323030302f73766727207072657365727665417370656374526174696f3d27784d696e594d696e206d656574272076696577426f783d273020302033303020333030273e3c7374796c653e2e62617365207b2066696c6c3a626c61636b203b20666f6e742d66616d696c793a2073657269663b20666f6e742d73697a653a20333070783b207d3c2f7374796c653e3c726563742077696474683d273130302527206865696768743d2731303025272066696c6c3d27776869746527202f3e20203c7465787420783d273530252720793d273530252720636c6173733d27626173652720646f6d696e616e742d626173656c696e653d276d6964646c652720746578742d616e63686f723d276d6964646c65273e434f50593c2f746578743e3c2f7376673e3c73766720786d6c6e733d27687474703a2f2f7777772e77332e6f72672f323030302f73766727207072657365727665417370656374526174696f3d27784d696e594d696e206d656574272076696577426f783d273020302033303020333030273e3c7374796c653e2e62617365207b2066696c6c3a626c61636b203b20666f6e742d66616d696c793a2073657269663b20666f6e742d73697a653a20333070783b207d3c2f7374796c653e3c726563742077696474683d273130302527206865696768743d2731303025272066696c6c3d27776869746527202f3e20203c7465787420783d273530252720793d273435252720636c6173733d27626173652720646f6d696e616e742d626173656c696e653d276d6964646c652720746578742d616e63686f723d276d6964646c65273e4e4f5448494e473c2f746578743e3c7465787420783d273535252720793d273630252720636c6173733d27626173652720646f6d696e616e742d626173656c696e653d276d6964646c652720746578742d616e63686f723d276d6964646c65273e626568696e642069743c2f746578743e3c2f7376673e546865726520617265206e6f2066616b657320696e20746865206f6e2d636861696e20646174612e204865726520697320746865204e4654206d61726b6564204552432d32302e204973207468697320746f6b656e204552432d3230206f72204552432d3732313f3c73766720786d6c6e733d27687474703a2f2f7777772e77332e6f72672f323030302f73766727207072657365727665417370656374526174696f3d27784d696e594d696e206d656574272076696577426f783d273020302033303020333030273e3c7374796c653e2e62617365207b2066696c6c3a626c61636b203b20666f6e742d66616d696c793a2073657269663b20666f6e742d73697a653a20333070783b207d3c2f7374796c653e3c726563742077696474683d273130302527206865696768743d2731303025272066696c6c3d27776869746527202f3e20203c7465787420783d273530252720793d273530252720636c6173733d27626173652720646f6d696e616e742d626173656c696e653d276d6964646c652720746578742d616e63686f723d276d6964646c65273e4552432d32303c2f746578743e3c2f7376673e",
  "linkReferences": {},
  "deployedLinkReferences": {}
}